{
  "_format": "hh-sol-artifact-1",
  "contractName": "NFTMarketplace",
  "sourceName": "contracts/NFTMarketplace.sol",
  "abi": [
    {
      "inputs": [],
      "stateMutability": "nonpayable",
      "type": "constructor"
    },
    {
      "inputs": [
        {
          "internalType": "address",
          "name": "sender",
          "type": "address"
        },
        {
          "internalType": "uint256",
          "name": "tokenId",
          "type": "uint256"
        },
        {
          "internalType": "address",
          "name": "owner",
          "type": "address"
        }
      ],
      "name": "ERC721IncorrectOwner",
      "type": "error"
    },
    {
      "inputs": [
        {
          "internalType": "address",
          "name": "operator",
          "type": "address"
        },
        {
          "internalType": "uint256",
          "name": "tokenId",
          "type": "uint256"
        }
      ],
      "name": "ERC721InsufficientApproval",
      "type": "error"
    },
    {
      "inputs": [
        {
          "internalType": "address",
          "name": "approver",
          "type": "address"
        }
      ],
      "name": "ERC721InvalidApprover",
      "type": "error"
    },
    {
      "inputs": [
        {
          "internalType": "address",
          "name": "operator",
          "type": "address"
        }
      ],
      "name": "ERC721InvalidOperator",
      "type": "error"
    },
    {
      "inputs": [
        {
          "internalType": "address",
          "name": "owner",
          "type": "address"
        }
      ],
      "name": "ERC721InvalidOwner",
      "type": "error"
    },
    {
      "inputs": [
        {
          "internalType": "address",
          "name": "receiver",
          "type": "address"
        }
      ],
      "name": "ERC721InvalidReceiver",
      "type": "error"
    },
    {
      "inputs": [
        {
          "internalType": "address",
          "name": "sender",
          "type": "address"
        }
      ],
      "name": "ERC721InvalidSender",
      "type": "error"
    },
    {
      "inputs": [
        {
          "internalType": "uint256",
          "name": "tokenId",
          "type": "uint256"
        }
      ],
      "name": "ERC721NonexistentToken",
      "type": "error"
    },
    {
      "anonymous": false,
      "inputs": [
        {
          "indexed": true,
          "internalType": "address",
          "name": "owner",
          "type": "address"
        },
        {
          "indexed": true,
          "internalType": "address",
          "name": "approved",
          "type": "address"
        },
        {
          "indexed": true,
          "internalType": "uint256",
          "name": "tokenId",
          "type": "uint256"
        }
      ],
      "name": "Approval",
      "type": "event"
    },
    {
      "anonymous": false,
      "inputs": [
        {
          "indexed": true,
          "internalType": "address",
          "name": "owner",
          "type": "address"
        },
        {
          "indexed": true,
          "internalType": "address",
          "name": "operator",
          "type": "address"
        },
        {
          "indexed": false,
          "internalType": "bool",
          "name": "approved",
          "type": "bool"
        }
      ],
      "name": "ApprovalForAll",
      "type": "event"
    },
    {
      "anonymous": false,
      "inputs": [
        {
          "indexed": false,
          "internalType": "uint256",
          "name": "_fromTokenId",
          "type": "uint256"
        },
        {
          "indexed": false,
          "internalType": "uint256",
          "name": "_toTokenId",
          "type": "uint256"
        }
      ],
      "name": "BatchMetadataUpdate",
      "type": "event"
    },
    {
      "anonymous": false,
      "inputs": [
        {
          "indexed": false,
          "internalType": "uint256",
          "name": "_tokenId",
          "type": "uint256"
        }
      ],
      "name": "MetadataUpdate",
      "type": "event"
    },
    {
      "anonymous": false,
      "inputs": [
        {
          "indexed": true,
          "internalType": "uint256",
          "name": "tokenId",
          "type": "uint256"
        },
        {
          "indexed": false,
          "internalType": "address",
          "name": "owner",
          "type": "address"
        },
        {
          "indexed": false,
          "internalType": "address",
          "name": "seller",
          "type": "address"
        },
        {
          "indexed": false,
          "internalType": "uint256",
          "name": "price",
          "type": "uint256"
        },
        {
          "indexed": false,
          "internalType": "bool",
          "name": "currentlyListed",
          "type": "bool"
        },
        {
          "indexed": false,
          "internalType": "enum NFTMarketplace.NFTCategory",
          "name": "category",
          "type": "uint8"
        }
      ],
      "name": "TokenListedSuccess",
      "type": "event"
    },
    {
      "anonymous": false,
      "inputs": [
        {
          "indexed": true,
          "internalType": "address",
          "name": "from",
          "type": "address"
        },
        {
          "indexed": true,
          "internalType": "address",
          "name": "to",
          "type": "address"
        },
        {
          "indexed": true,
          "internalType": "uint256",
          "name": "tokenId",
          "type": "uint256"
        }
      ],
      "name": "Transfer",
      "type": "event"
    },
    {
      "inputs": [
        {
          "internalType": "address",
          "name": "to",
          "type": "address"
        },
        {
          "internalType": "uint256",
          "name": "tokenId",
          "type": "uint256"
        }
      ],
      "name": "approve",
      "outputs": [],
      "stateMutability": "nonpayable",
      "type": "function"
    },
    {
      "inputs": [
        {
          "internalType": "address",
          "name": "owner",
          "type": "address"
        }
      ],
      "name": "balanceOf",
      "outputs": [
        {
          "internalType": "uint256",
          "name": "",
          "type": "uint256"
        }
      ],
      "stateMutability": "view",
      "type": "function"
    },
    {
      "inputs": [
        {
          "internalType": "uint256",
          "name": "tokenId",
          "type": "uint256"
        },
        {
          "internalType": "uint256",
          "name": "price",
          "type": "uint256"
        }
      ],
      "name": "createListedToken",
      "outputs": [],
      "stateMutability": "payable",
      "type": "function"
    },
    {
      "inputs": [
        {
          "internalType": "uint256",
          "name": "tokenId",
          "type": "uint256"
        }
      ],
      "name": "executeSale",
      "outputs": [],
      "stateMutability": "payable",
      "type": "function"
    },
    {
      "inputs": [],
      "name": "getAllNFTs",
      "outputs": [
        {
          "components": [
            {
              "internalType": "uint256",
              "name": "tokenId",
              "type": "uint256"
            },
            {
              "internalType": "address payable",
              "name": "owner",
              "type": "address"
            },
            {
              "internalType": "address payable",
              "name": "seller",
              "type": "address"
            },
            {
              "internalType": "uint256",
              "name": "price",
              "type": "uint256"
            },
            {
              "internalType": "bool",
              "name": "currentlyListed",
              "type": "bool"
            },
            {
              "internalType": "enum NFTMarketplace.NFTCategory",
              "name": "category",
              "type": "uint8"
            }
          ],
          "internalType": "struct NFTMarketplace.ListedToken[]",
          "name": "",
          "type": "tuple[]"
        }
      ],
      "stateMutability": "view",
      "type": "function"
    },
    {
      "inputs": [
        {
          "internalType": "uint256",
          "name": "tokenId",
          "type": "uint256"
        }
      ],
      "name": "getApproved",
      "outputs": [
        {
          "internalType": "address",
          "name": "",
          "type": "address"
        }
      ],
      "stateMutability": "view",
      "type": "function"
    },
    {
      "inputs": [],
      "name": "getCurrentToken",
      "outputs": [
        {
          "internalType": "uint256",
          "name": "",
          "type": "uint256"
        }
      ],
      "stateMutability": "view",
      "type": "function"
    },
    {
      "inputs": [
        {
          "internalType": "uint256",
          "name": "tokenId",
          "type": "uint256"
        }
      ],
      "name": "getListedTokenForId",
      "outputs": [
        {
          "components": [
            {
              "internalType": "uint256",
              "name": "tokenId",
              "type": "uint256"
            },
            {
              "internalType": "address payable",
              "name": "owner",
              "type": "address"
            },
            {
              "internalType": "address payable",
              "name": "seller",
              "type": "address"
            },
            {
              "internalType": "uint256",
              "name": "price",
              "type": "uint256"
            },
            {
              "internalType": "bool",
              "name": "currentlyListed",
              "type": "bool"
            },
            {
              "internalType": "enum NFTMarketplace.NFTCategory",
              "name": "category",
              "type": "uint8"
            }
          ],
          "internalType": "struct NFTMarketplace.ListedToken",
          "name": "",
          "type": "tuple"
        }
      ],
      "stateMutability": "view",
      "type": "function"
    },
    {
      "inputs": [],
      "name": "getMyNFTs",
      "outputs": [
        {
          "components": [
            {
              "internalType": "uint256",
              "name": "tokenId",
              "type": "uint256"
            },
            {
              "internalType": "address payable",
              "name": "owner",
              "type": "address"
            },
            {
              "internalType": "address payable",
              "name": "seller",
              "type": "address"
            },
            {
              "internalType": "uint256",
              "name": "price",
              "type": "uint256"
            },
            {
              "internalType": "bool",
              "name": "currentlyListed",
              "type": "bool"
            },
            {
              "internalType": "enum NFTMarketplace.NFTCategory",
              "name": "category",
              "type": "uint8"
            }
          ],
          "internalType": "struct NFTMarketplace.ListedToken[]",
          "name": "",
          "type": "tuple[]"
        }
      ],
      "stateMutability": "view",
      "type": "function"
    },
    {
      "inputs": [],
      "name": "getmintingPrice",
      "outputs": [
        {
          "internalType": "uint256",
          "name": "",
          "type": "uint256"
        }
      ],
      "stateMutability": "view",
      "type": "function"
    },
    {
      "inputs": [
        {
          "internalType": "address",
          "name": "owner",
          "type": "address"
        },
        {
          "internalType": "address",
          "name": "operator",
          "type": "address"
        }
      ],
      "name": "isApprovedForAll",
      "outputs": [
        {
          "internalType": "bool",
          "name": "",
          "type": "bool"
        }
      ],
      "stateMutability": "view",
      "type": "function"
    },
    {
      "inputs": [
        {
          "internalType": "string",
          "name": "tokenURI",
          "type": "string"
        },
        {
          "internalType": "enum NFTMarketplace.NFTCategory",
          "name": "category",
          "type": "uint8"
        }
      ],
      "name": "mintToken",
      "outputs": [
        {
          "internalType": "uint256",
          "name": "",
          "type": "uint256"
        }
      ],
      "stateMutability": "payable",
      "type": "function"
    },
    {
      "inputs": [],
      "name": "mintingPrice",
      "outputs": [
        {
          "internalType": "uint256",
          "name": "",
          "type": "uint256"
        }
      ],
      "stateMutability": "view",
      "type": "function"
    },
    {
      "inputs": [],
      "name": "name",
      "outputs": [
        {
          "internalType": "string",
          "name": "",
          "type": "string"
        }
      ],
      "stateMutability": "view",
      "type": "function"
    },
    {
      "inputs": [],
      "name": "owner",
      "outputs": [
        {
          "internalType": "address payable",
          "name": "",
          "type": "address"
        }
      ],
      "stateMutability": "view",
      "type": "function"
    },
    {
      "inputs": [
        {
          "internalType": "uint256",
          "name": "tokenId",
          "type": "uint256"
        }
      ],
      "name": "ownerOf",
      "outputs": [
        {
          "internalType": "address",
          "name": "",
          "type": "address"
        }
      ],
      "stateMutability": "view",
      "type": "function"
    },
    {
      "inputs": [
        {
          "internalType": "address",
          "name": "from",
          "type": "address"
        },
        {
          "internalType": "address",
          "name": "to",
          "type": "address"
        },
        {
          "internalType": "uint256",
          "name": "tokenId",
          "type": "uint256"
        }
      ],
      "name": "safeTransferFrom",
      "outputs": [],
      "stateMutability": "nonpayable",
      "type": "function"
    },
    {
      "inputs": [
        {
          "internalType": "address",
          "name": "from",
          "type": "address"
        },
        {
          "internalType": "address",
          "name": "to",
          "type": "address"
        },
        {
          "internalType": "uint256",
          "name": "tokenId",
          "type": "uint256"
        },
        {
          "internalType": "bytes",
          "name": "data",
          "type": "bytes"
        }
      ],
      "name": "safeTransferFrom",
      "outputs": [],
      "stateMutability": "nonpayable",
      "type": "function"
    },
    {
      "inputs": [
        {
          "internalType": "address",
          "name": "operator",
          "type": "address"
        },
        {
          "internalType": "bool",
          "name": "approved",
          "type": "bool"
        }
      ],
      "name": "setApprovalForAll",
      "outputs": [],
      "stateMutability": "nonpayable",
      "type": "function"
    },
    {
      "inputs": [
        {
          "internalType": "bytes4",
          "name": "interfaceId",
          "type": "bytes4"
        }
      ],
      "name": "supportsInterface",
      "outputs": [
        {
          "internalType": "bool",
          "name": "",
          "type": "bool"
        }
      ],
      "stateMutability": "view",
      "type": "function"
    },
    {
      "inputs": [],
      "name": "symbol",
      "outputs": [
        {
          "internalType": "string",
          "name": "",
          "type": "string"
        }
      ],
      "stateMutability": "view",
      "type": "function"
    },
    {
      "inputs": [
        {
          "internalType": "uint256",
          "name": "tokenId",
          "type": "uint256"
        }
      ],
      "name": "tokenURI",
      "outputs": [
        {
          "internalType": "string",
          "name": "",
          "type": "string"
        }
      ],
      "stateMutability": "view",
      "type": "function"
    },
    {
      "inputs": [
        {
          "internalType": "address",
          "name": "from",
          "type": "address"
        },
        {
          "internalType": "address",
          "name": "to",
          "type": "address"
        },
        {
          "internalType": "uint256",
          "name": "tokenId",
          "type": "uint256"
        }
      ],
      "name": "transferFrom",
      "outputs": [],
      "stateMutability": "nonpayable",
      "type": "function"
    },
    {
      "inputs": [
        {
          "internalType": "uint256",
          "name": "_listPrice",
          "type": "uint256"
        }
      ],
      "name": "updatemintingPrice",
      "outputs": [],
      "stateMutability": "nonpayable",
      "type": "function"
    }
  ],
  "bytecode": "0x60806040526402540be400600a5534801561001957600080fd5b506040518060400160405280600e81526020017f4e46544d61726b6574706c6163650000000000000000000000000000000000008152506040518060400160405280600481526020017f4e46544d000000000000000000000000000000000000000000000000000000008152508160009081610095919061033e565b5080600190816100a5919061033e565b50505033600960006101000a81548173ffffffffffffffffffffffffffffffffffffffff021916908373ffffffffffffffffffffffffffffffffffffffff160217905550610410565b600081519050919050565b7f4e487b7100000000000000000000000000000000000000000000000000000000600052604160045260246000fd5b7f4e487b7100000000000000000000000000000000000000000000000000000000600052602260045260246000fd5b6000600282049050600182168061016f57607f821691505b60208210810361018257610181610128565b5b50919050565b60008190508160005260206000209050919050565b60006020601f8301049050919050565b600082821b905092915050565b6000600883026101ea7fffffffffffffffffffffffffffffffffffffffffffffffffffffffffffffffff826101ad565b6101f486836101ad565b95508019841693508086168417925050509392505050565b6000819050919050565b6000819050919050565b600061023b6102366102318461020c565b610216565b61020c565b9050919050565b6000819050919050565b61025583610220565b61026961026182610242565b8484546101ba565b825550505050565b600090565b61027e610271565b61028981848461024c565b505050565b5b818110156102ad576102a2600082610276565b60018101905061028f565b5050565b601f8211156102f2576102c381610188565b6102cc8461019d565b810160208510156102db578190505b6102ef6102e78561019d565b83018261028e565b50505b505050565b600082821c905092915050565b6000610315600019846008026102f7565b1980831691505092915050565b600061032e8383610304565b9150826002028217905092915050565b610347826100ee565b67ffffffffffffffff8111156103605761035f6100f9565b5b61036a8254610157565b6103758282856102b1565b600060209050601f8311600181146103a85760008415610396578287015190505b6103a08582610322565b865550610408565b601f1984166103b686610188565b60005b828110156103de578489015182556001820191506020850194506020810190506103b9565b868310156103fb57848901516103f7601f891682610304565b8355505b6001600288020188555050505b505050505050565b613d798061041f6000396000f3fe60806040526004361061014b5760003560e01c806370a08231116100b6578063a22cb4651161006f578063a22cb4651461048f578063b88d4fde146104b8578063c87b56dd146104e1578063e0391b091461051e578063e985e9c514610549578063ef2d1746146105865761014b565b806370a08231146103735780638d1f73a7146103b05780638da5cb5b146103e05780638e2645901461040b57806395d89b41146104485780639b1225c4146104735761014b565b806335db70b51161010857806335db70b5146102705780633ef53b431461029b57806342842e0e146102c657806355524f56146102ef578063629cb2e41461030b5780636352211e146103365761014b565b806301ffc9a71461015057806306fdde031461018d578063081812fc146101b8578063095ea7b3146101f557806323b872dd1461021e5780632c7c23d714610247575b600080fd5b34801561015c57600080fd5b5061017760048036038101906101729190612aff565b6105b1565b6040516101849190612b47565b60405180910390f35b34801561019957600080fd5b506101a2610612565b6040516101af9190612bf2565b60405180910390f35b3480156101c457600080fd5b506101df60048036038101906101da9190612c4a565b6106a4565b6040516101ec9190612cb8565b60405180910390f35b34801561020157600080fd5b5061021c60048036038101906102179190612cff565b6106c0565b005b34801561022a57600080fd5b5061024560048036038101906102409190612d3f565b6106d6565b005b34801561025357600080fd5b5061026e60048036038101906102699190612c4a565b6107d8565b005b34801561027c57600080fd5b50610285610872565b6040516102929190612da1565b60405180910390f35b3480156102a757600080fd5b506102b0610878565b6040516102bd9190612da1565b60405180910390f35b3480156102d257600080fd5b506102ed60048036038101906102e89190612d3f565b610882565b005b61030960048036038101906103049190612dbc565b6108a2565b005b34801561031757600080fd5b50610320610b07565b60405161032d9190612fdc565b60405180910390f35b34801561034257600080fd5b5061035d60048036038101906103589190612c4a565b610ed5565b60405161036a9190612cb8565b60405180910390f35b34801561037f57600080fd5b5061039a60048036038101906103959190612ffe565b610ee7565b6040516103a79190612da1565b60405180910390f35b6103ca60048036038101906103c59190613185565b610fa1565b6040516103d79190612da1565b60405180910390f35b3480156103ec57600080fd5b506103f561119d565b60405161040291906131f0565b60405180910390f35b34801561041757600080fd5b50610432600480360381019061042d9190612c4a565b6111c3565b60405161043f9190613286565b60405180910390f35b34801561045457600080fd5b5061045d611306565b60405161046a9190612bf2565b60405180910390f35b61048d60048036038101906104889190612c4a565b611398565b005b34801561049b57600080fd5b506104b660048036038101906104b191906132cd565b6115b3565b005b3480156104c457600080fd5b506104df60048036038101906104da91906133ae565b6115c9565b005b3480156104ed57600080fd5b5061050860048036038101906105039190612c4a565b6115ee565b6040516105159190612bf2565b60405180910390f35b34801561052a57600080fd5b50610533611701565b6040516105409190612fdc565b60405180910390f35b34801561055557600080fd5b50610570600480360381019061056b9190613431565b6118ee565b60405161057d9190612b47565b60405180910390f35b34801561059257600080fd5b5061059b611982565b6040516105a89190612da1565b60405180910390f35b6000634906490660e01b7bffffffffffffffffffffffffffffffffffffffffffffffffffffffff1916827bffffffffffffffffffffffffffffffffffffffffffffffffffffffff1916148061060b575061060a8261198c565b5b9050919050565b606060008054610621906134a0565b80601f016020809104026020016040519081016040528092919081815260200182805461064d906134a0565b801561069a5780601f1061066f5761010080835404028352916020019161069a565b820191906000526020600020905b81548152906001019060200180831161067d57829003601f168201915b5050505050905090565b60006106af82611a6e565b506106b982611af6565b9050919050565b6106d282826106cd611b33565b611b3b565b5050565b600073ffffffffffffffffffffffffffffffffffffffff168273ffffffffffffffffffffffffffffffffffffffff16036107485760006040517f64a0ae9200000000000000000000000000000000000000000000000000000000815260040161073f9190612cb8565b60405180910390fd5b600061075c8383610757611b33565b611b4d565b90508373ffffffffffffffffffffffffffffffffffffffff168173ffffffffffffffffffffffffffffffffffffffff16146107d2578382826040517f64283d7b0000000000000000000000000000000000000000000000000000000081526004016107c9939291906134d1565b60405180910390fd5b50505050565b3373ffffffffffffffffffffffffffffffffffffffff16600960009054906101000a900473ffffffffffffffffffffffffffffffffffffffff1673ffffffffffffffffffffffffffffffffffffffff1614610868576040517f08c379a000000000000000000000000000000000000000000000000000000000815260040161085f9061357a565b60405180910390fd5b80600a8190555050565b600a5481565b6000600a54905090565b61089d838383604051806020016040528060008152506115c9565b505050565b600081116108e5576040517f08c379a00000000000000000000000000000000000000000000000000000000081526004016108dc906135e6565b60405180910390fd5b600a5434101561092a576040517f08c379a000000000000000000000000000000000000000000000000000000000815260040161092190613652565b60405180910390fd5b3373ffffffffffffffffffffffffffffffffffffffff1661094a83610ed5565b73ffffffffffffffffffffffffffffffffffffffff16146109a0576040517f08c379a0000000000000000000000000000000000000000000000000000000008152600401610997906136be565b60405180910390fd5b30600b600084815260200190815260200160002060010160006101000a81548173ffffffffffffffffffffffffffffffffffffffff021916908373ffffffffffffffffffffffffffffffffffffffff16021790555033600b600084815260200190815260200160002060020160006101000a81548173ffffffffffffffffffffffffffffffffffffffff021916908373ffffffffffffffffffffffffffffffffffffffff16021790555080600b6000848152602001908152602001600020600301819055506001600b600084815260200190815260200160002060040160006101000a81548160ff021916908315150217905550610a9f333084611d67565b817f74562ff4aca0f61b76e9b719261c3ed439529c9fbeb002c7ddfac9193b44800c3033846001600b600089815260200190815260200160002060040160019054906101000a900460ff16604051610afb9594939291906136ed565b60405180910390a25050565b6060600060075490506000806000600190505b838111610c19573373ffffffffffffffffffffffffffffffffffffffff16600b600083815260200190815260200160002060010160009054906101000a900473ffffffffffffffffffffffffffffffffffffffff1673ffffffffffffffffffffffffffffffffffffffff161480610bf257503373ffffffffffffffffffffffffffffffffffffffff16600b600083815260200190815260200160002060020160009054906101000a900473ffffffffffffffffffffffffffffffffffffffff1673ffffffffffffffffffffffffffffffffffffffff16145b15610c06578280610c029061376f565b9350505b8080610c119061376f565b915050610b1a565b5060008267ffffffffffffffff811115610c3657610c35613035565b5b604051908082528060200260200182016040528015610c6f57816020015b610c5c612a1d565b815260200190600190039081610c545790505b5090506000600190505b848111610eca573373ffffffffffffffffffffffffffffffffffffffff16600b600083815260200190815260200160002060010160009054906101000a900473ffffffffffffffffffffffffffffffffffffffff1673ffffffffffffffffffffffffffffffffffffffff161480610d5157503373ffffffffffffffffffffffffffffffffffffffff16600b600083815260200190815260200160002060020160009054906101000a900473ffffffffffffffffffffffffffffffffffffffff1673ffffffffffffffffffffffffffffffffffffffff16145b15610eb757600b60008281526020019081526020016000206040518060c0016040529081600082015481526020016001820160009054906101000a900473ffffffffffffffffffffffffffffffffffffffff1673ffffffffffffffffffffffffffffffffffffffff1673ffffffffffffffffffffffffffffffffffffffff1681526020016002820160009054906101000a900473ffffffffffffffffffffffffffffffffffffffff1673ffffffffffffffffffffffffffffffffffffffff1673ffffffffffffffffffffffffffffffffffffffff168152602001600382015481526020016004820160009054906101000a900460ff161515151581526020016004820160019054906101000a900460ff166002811115610e7457610e73612e67565b5b6002811115610e8657610e85612e67565b5b81525050828481518110610e9d57610e9c6137b7565b5b60200260200101819052508280610eb39061376f565b9350505b8080610ec29061376f565b915050610c79565b508094505050505090565b6000610ee082611a6e565b9050919050565b60008073ffffffffffffffffffffffffffffffffffffffff168273ffffffffffffffffffffffffffffffffffffffff1603610f5a5760006040517f89c62b64000000000000000000000000000000000000000000000000000000008152600401610f519190612cb8565b60405180910390fd5b600360008373ffffffffffffffffffffffffffffffffffffffff1673ffffffffffffffffffffffffffffffffffffffff168152602001908152602001600020549050919050565b6000600a54341015610fe8576040517f08c379a0000000000000000000000000000000000000000000000000000000008152600401610fdf90613832565b60405180910390fd5b60076000815480929190610ffb9061376f565b9190505550600060075490506110113382611ed4565b61101b8185611ef2565b6040518060c001604052808281526020013373ffffffffffffffffffffffffffffffffffffffff168152602001600073ffffffffffffffffffffffffffffffffffffffff1681526020016000815260200160001515815260200184600281111561108857611087612e67565b5b815250600b60008381526020019081526020016000206000820151816000015560208201518160010160006101000a81548173ffffffffffffffffffffffffffffffffffffffff021916908373ffffffffffffffffffffffffffffffffffffffff16021790555060408201518160020160006101000a81548173ffffffffffffffffffffffffffffffffffffffff021916908373ffffffffffffffffffffffffffffffffffffffff1602179055506060820151816003015560808201518160040160006101000a81548160ff02191690831515021790555060a08201518160040160016101000a81548160ff0219169083600281111561118b5761118a612e67565b5b02179055509050508091505092915050565b600960009054906101000a900473ffffffffffffffffffffffffffffffffffffffff1681565b6111cb612a1d565b600b60008381526020019081526020016000206040518060c0016040529081600082015481526020016001820160009054906101000a900473ffffffffffffffffffffffffffffffffffffffff1673ffffffffffffffffffffffffffffffffffffffff1673ffffffffffffffffffffffffffffffffffffffff1681526020016002820160009054906101000a900473ffffffffffffffffffffffffffffffffffffffff1673ffffffffffffffffffffffffffffffffffffffff1673ffffffffffffffffffffffffffffffffffffffff168152602001600382015481526020016004820160009054906101000a900460ff161515151581526020016004820160019054906101000a900460ff1660028111156112e9576112e8612e67565b5b60028111156112fb576112fa612e67565b5b815250509050919050565b606060018054611315906134a0565b80601f0160208091040260200160405190810160405280929190818152602001828054611341906134a0565b801561138e5780601f106113635761010080835404028352916020019161138e565b820191906000526020600020905b81548152906001019060200180831161137157829003601f168201915b5050505050905090565b6000600b600083815260200190815260200160002090508060040160009054906101000a900460ff16611400576040517f08c379a00000000000000000000000000000000000000000000000000000000081526004016113f79061389e565b60405180910390fd5b80600301543414611446576040517f08c379a000000000000000000000000000000000000000000000000000000000815260040161143d9061390a565b60405180910390fd5b60008160020160009054906101000a900473ffffffffffffffffffffffffffffffffffffffff16905060008260040160006101000a81548160ff021916908315150217905550338260020160006101000a81548173ffffffffffffffffffffffffffffffffffffffff021916908373ffffffffffffffffffffffffffffffffffffffff160217905550600860008154809291906114e29061376f565b91905055506114f2303385611d67565b6114fc30846106c0565b600960009054906101000a900473ffffffffffffffffffffffffffffffffffffffff1673ffffffffffffffffffffffffffffffffffffffff166108fc600a549081150290604051600060405180830381858888f19350505050158015611566573d6000803e3d6000fd5b508073ffffffffffffffffffffffffffffffffffffffff166108fc349081150290604051600060405180830381858888f193505050501580156115ad573d6000803e3d6000fd5b50505050565b6115c56115be611b33565b8383611f4e565b5050565b6115d48484846106d6565b6115e86115df611b33565b858585856120bd565b50505050565b60606115f982611a6e565b50600060066000848152602001908152602001600020805461161a906134a0565b80601f0160208091040260200160405190810160405280929190818152602001828054611646906134a0565b80156116935780601f1061166857610100808354040283529160200191611693565b820191906000526020600020905b81548152906001019060200180831161167657829003601f168201915b5050505050905060006116a461226e565b905060008151036116b95781925050506116fc565b6000825111156116ee5780826040516020016116d6929190613966565b604051602081830303815290604052925050506116fc565b6116f784612285565b925050505b919050565b60606000600754905060008167ffffffffffffffff81111561172657611725613035565b5b60405190808252806020026020018201604052801561175f57816020015b61174c612a1d565b8152602001906001900390816117445790505b509050600080600190505b8381116118e457600b60008281526020019081526020016000206040518060c0016040529081600082015481526020016001820160009054906101000a900473ffffffffffffffffffffffffffffffffffffffff1673ffffffffffffffffffffffffffffffffffffffff1673ffffffffffffffffffffffffffffffffffffffff1681526020016002820160009054906101000a900473ffffffffffffffffffffffffffffffffffffffff1673ffffffffffffffffffffffffffffffffffffffff1673ffffffffffffffffffffffffffffffffffffffff168152602001600382015481526020016004820160009054906101000a900460ff161515151581526020016004820160019054906101000a900460ff16600281111561188f5761188e612e67565b5b60028111156118a1576118a0612e67565b5b815250508383815181106118b8576118b76137b7565b5b602002602001018190525081806118ce9061376f565b92505080806118dc9061376f565b91505061176a565b5081935050505090565b6000600560008473ffffffffffffffffffffffffffffffffffffffff1673ffffffffffffffffffffffffffffffffffffffff16815260200190815260200160002060008373ffffffffffffffffffffffffffffffffffffffff1673ffffffffffffffffffffffffffffffffffffffff16815260200190815260200160002060009054906101000a900460ff16905092915050565b6000600754905090565b60007f80ac58cd000000000000000000000000000000000000000000000000000000007bffffffffffffffffffffffffffffffffffffffffffffffffffffffff1916827bffffffffffffffffffffffffffffffffffffffffffffffffffffffff19161480611a5757507f5b5e139f000000000000000000000000000000000000000000000000000000007bffffffffffffffffffffffffffffffffffffffffffffffffffffffff1916827bffffffffffffffffffffffffffffffffffffffffffffffffffffffff1916145b80611a675750611a66826122ee565b5b9050919050565b600080611a7a83612358565b9050600073ffffffffffffffffffffffffffffffffffffffff168173ffffffffffffffffffffffffffffffffffffffff1603611aed57826040517f7e273289000000000000000000000000000000000000000000000000000000008152600401611ae49190612da1565b60405180910390fd5b80915050919050565b60006004600083815260200190815260200160002060009054906101000a900473ffffffffffffffffffffffffffffffffffffffff169050919050565b600033905090565b611b488383836001612395565b505050565b600080611b5984612358565b9050600073ffffffffffffffffffffffffffffffffffffffff168373ffffffffffffffffffffffffffffffffffffffff1614611b9b57611b9a81848661255a565b5b600073ffffffffffffffffffffffffffffffffffffffff168173ffffffffffffffffffffffffffffffffffffffff1614611c2c57611bdd600085600080612395565b6001600360008373ffffffffffffffffffffffffffffffffffffffff1673ffffffffffffffffffffffffffffffffffffffff168152602001908152602001600020600082825403925050819055505b600073ffffffffffffffffffffffffffffffffffffffff168573ffffffffffffffffffffffffffffffffffffffff1614611caf576001600360008773ffffffffffffffffffffffffffffffffffffffff1673ffffffffffffffffffffffffffffffffffffffff168152602001908152602001600020600082825401925050819055505b846002600086815260200190815260200160002060006101000a81548173ffffffffffffffffffffffffffffffffffffffff021916908373ffffffffffffffffffffffffffffffffffffffff160217905550838573ffffffffffffffffffffffffffffffffffffffff168273ffffffffffffffffffffffffffffffffffffffff167fddf252ad1be2c89b69c2b068fc378daa952ba7f163c4a11628f55a4df523b3ef60405160405180910390a4809150509392505050565b600073ffffffffffffffffffffffffffffffffffffffff168273ffffffffffffffffffffffffffffffffffffffff1603611dd95760006040517f64a0ae92000000000000000000000000000000000000000000000000000000008152600401611dd09190612cb8565b60405180910390fd5b6000611de783836000611b4d565b9050600073ffffffffffffffffffffffffffffffffffffffff168173ffffffffffffffffffffffffffffffffffffffff1603611e5a57816040517f7e273289000000000000000000000000000000000000000000000000000000008152600401611e519190612da1565b60405180910390fd5b8373ffffffffffffffffffffffffffffffffffffffff168173ffffffffffffffffffffffffffffffffffffffff1614611ece578382826040517f64283d7b000000000000000000000000000000000000000000000000000000008152600401611ec5939291906134d1565b60405180910390fd5b50505050565b611eee82826040518060200160405280600081525061261e565b5050565b80600660008481526020019081526020016000209081611f129190613b36565b507ff8e1a15aba9398e019f0b49df1a4fde98ee17ae345cb5f6b5e2c27f5033e8ce782604051611f429190612da1565b60405180910390a15050565b600073ffffffffffffffffffffffffffffffffffffffff168273ffffffffffffffffffffffffffffffffffffffff1603611fbf57816040517f5b08ba18000000000000000000000000000000000000000000000000000000008152600401611fb69190612cb8565b60405180910390fd5b80600560008573ffffffffffffffffffffffffffffffffffffffff1673ffffffffffffffffffffffffffffffffffffffff16815260200190815260200160002060008473ffffffffffffffffffffffffffffffffffffffff1673ffffffffffffffffffffffffffffffffffffffff16815260200190815260200160002060006101000a81548160ff0219169083151502179055508173ffffffffffffffffffffffffffffffffffffffff168373ffffffffffffffffffffffffffffffffffffffff167f17307eab39ab6107e8899845ad3d59bd9653f200f220920489ca2b5937696c31836040516120b09190612b47565b60405180910390a3505050565b60008373ffffffffffffffffffffffffffffffffffffffff163b1115612267578273ffffffffffffffffffffffffffffffffffffffff1663150b7a02868685856040518563ffffffff1660e01b815260040161211c9493929190613c5d565b6020604051808303816000875af192505050801561215857506040513d601f19601f820116820180604052508101906121559190613cbe565b60015b6121dc573d8060008114612188576040519150601f19603f3d011682016040523d82523d6000602084013e61218d565b606091505b5060008151036121d457836040517f64a0ae920000000000000000000000000000000000000000000000000000000081526004016121cb9190612cb8565b60405180910390fd5b805181602001fd5b63150b7a0260e01b7bffffffffffffffffffffffffffffffffffffffffffffffffffffffff1916817bffffffffffffffffffffffffffffffffffffffffffffffffffffffff19161461226557836040517f64a0ae9200000000000000000000000000000000000000000000000000000000815260040161225c9190612cb8565b60405180910390fd5b505b5050505050565b606060405180602001604052806000815250905090565b606061229082611a6e565b50600061229b61226e565b905060008151116122bb57604051806020016040528060008152506122e6565b806122c584612642565b6040516020016122d6929190613966565b6040516020818303038152906040525b915050919050565b60007f01ffc9a7000000000000000000000000000000000000000000000000000000007bffffffffffffffffffffffffffffffffffffffffffffffffffffffff1916827bffffffffffffffffffffffffffffffffffffffffffffffffffffffff1916149050919050565b60006002600083815260200190815260200160002060009054906101000a900473ffffffffffffffffffffffffffffffffffffffff169050919050565b80806123ce5750600073ffffffffffffffffffffffffffffffffffffffff168273ffffffffffffffffffffffffffffffffffffffff1614155b156125025760006123de84611a6e565b9050600073ffffffffffffffffffffffffffffffffffffffff168373ffffffffffffffffffffffffffffffffffffffff161415801561244957508273ffffffffffffffffffffffffffffffffffffffff168173ffffffffffffffffffffffffffffffffffffffff1614155b801561245c575061245a81846118ee565b155b1561249e57826040517fa9fbf51f0000000000000000000000000000000000000000000000000000000081526004016124959190612cb8565b60405180910390fd5b811561250057838573ffffffffffffffffffffffffffffffffffffffff168273ffffffffffffffffffffffffffffffffffffffff167f8c5be1e5ebec7d5bd14f71427d1e84f3dd0314c0f7b2291e5b200ac8c7c3b92560405160405180910390a45b505b836004600085815260200190815260200160002060006101000a81548173ffffffffffffffffffffffffffffffffffffffff021916908373ffffffffffffffffffffffffffffffffffffffff16021790555050505050565b612565838383612710565b61261957600073ffffffffffffffffffffffffffffffffffffffff168373ffffffffffffffffffffffffffffffffffffffff16036125da57806040517f7e2732890000000000000000000000000000000000000000000000000000000081526004016125d19190612da1565b60405180910390fd5b81816040517f177e802f000000000000000000000000000000000000000000000000000000008152600401612610929190613ceb565b60405180910390fd5b505050565b61262883836127d1565b61263d612633611b33565b60008585856120bd565b505050565b606060006001612651846128ca565b01905060008167ffffffffffffffff8111156126705761266f613035565b5b6040519080825280601f01601f1916602001820160405280156126a25781602001600182028036833780820191505090505b509050600082602001820190505b600115612705578080600190039150507f3031323334353637383961626364656600000000000000000000000000000000600a86061a8153600a85816126f9576126f8613d14565b5b049450600085036126b0575b819350505050919050565b60008073ffffffffffffffffffffffffffffffffffffffff168373ffffffffffffffffffffffffffffffffffffffff16141580156127c857508273ffffffffffffffffffffffffffffffffffffffff168473ffffffffffffffffffffffffffffffffffffffff161480612789575061278884846118ee565b5b806127c757508273ffffffffffffffffffffffffffffffffffffffff166127af83611af6565b73ffffffffffffffffffffffffffffffffffffffff16145b5b90509392505050565b600073ffffffffffffffffffffffffffffffffffffffff168273ffffffffffffffffffffffffffffffffffffffff16036128435760006040517f64a0ae9200000000000000000000000000000000000000000000000000000000815260040161283a9190612cb8565b60405180910390fd5b600061285183836000611b4d565b9050600073ffffffffffffffffffffffffffffffffffffffff168173ffffffffffffffffffffffffffffffffffffffff16146128c55760006040517f73c6ac6e0000000000000000000000000000000000000000000000000000000081526004016128bc9190612cb8565b60405180910390fd5b505050565b600080600090507a184f03e93ff9f4daa797ed6e38ed64bf6a1f0100000000000000008310612928577a184f03e93ff9f4daa797ed6e38ed64bf6a1f010000000000000000838161291e5761291d613d14565b5b0492506040810190505b6d04ee2d6d415b85acef81000000008310612965576d04ee2d6d415b85acef8100000000838161295b5761295a613d14565b5b0492506020810190505b662386f26fc10000831061299457662386f26fc10000838161298a57612989613d14565b5b0492506010810190505b6305f5e10083106129bd576305f5e10083816129b3576129b2613d14565b5b0492506008810190505b61271083106129e25761271083816129d8576129d7613d14565b5b0492506004810190505b60648310612a0557606483816129fb576129fa613d14565b5b0492506002810190505b600a8310612a14576001810190505b80915050919050565b6040518060c0016040528060008152602001600073ffffffffffffffffffffffffffffffffffffffff168152602001600073ffffffffffffffffffffffffffffffffffffffff1681526020016000815260200160001515815260200160006002811115612a8d57612a8c612e67565b5b81525090565b6000604051905090565b600080fd5b600080fd5b60007fffffffff0000000000000000000000000000000000000000000000000000000082169050919050565b612adc81612aa7565b8114612ae757600080fd5b50565b600081359050612af981612ad3565b92915050565b600060208284031215612b1557612b14612a9d565b5b6000612b2384828501612aea565b91505092915050565b60008115159050919050565b612b4181612b2c565b82525050565b6000602082019050612b5c6000830184612b38565b92915050565b600081519050919050565b600082825260208201905092915050565b60005b83811015612b9c578082015181840152602081019050612b81565b60008484015250505050565b6000601f19601f8301169050919050565b6000612bc482612b62565b612bce8185612b6d565b9350612bde818560208601612b7e565b612be781612ba8565b840191505092915050565b60006020820190508181036000830152612c0c8184612bb9565b905092915050565b6000819050919050565b612c2781612c14565b8114612c3257600080fd5b50565b600081359050612c4481612c1e565b92915050565b600060208284031215612c6057612c5f612a9d565b5b6000612c6e84828501612c35565b91505092915050565b600073ffffffffffffffffffffffffffffffffffffffff82169050919050565b6000612ca282612c77565b9050919050565b612cb281612c97565b82525050565b6000602082019050612ccd6000830184612ca9565b92915050565b612cdc81612c97565b8114612ce757600080fd5b50565b600081359050612cf981612cd3565b92915050565b60008060408385031215612d1657612d15612a9d565b5b6000612d2485828601612cea565b9250506020612d3585828601612c35565b9150509250929050565b600080600060608486031215612d5857612d57612a9d565b5b6000612d6686828701612cea565b9350506020612d7786828701612cea565b9250506040612d8886828701612c35565b9150509250925092565b612d9b81612c14565b82525050565b6000602082019050612db66000830184612d92565b92915050565b60008060408385031215612dd357612dd2612a9d565b5b6000612de185828601612c35565b9250506020612df285828601612c35565b9150509250929050565b600081519050919050565b600082825260208201905092915050565b6000819050602082019050919050565b612e3181612c14565b82525050565b6000612e4282612c77565b9050919050565b612e5281612e37565b82525050565b612e6181612b2c565b82525050565b7f4e487b7100000000000000000000000000000000000000000000000000000000600052602160045260246000fd5b60038110612ea757612ea6612e67565b5b50565b6000819050612eb882612e96565b919050565b6000612ec882612eaa565b9050919050565b612ed881612ebd565b82525050565b60c082016000820151612ef46000850182612e28565b506020820151612f076020850182612e49565b506040820151612f1a6040850182612e49565b506060820151612f2d6060850182612e28565b506080820151612f406080850182612e58565b5060a0820151612f5360a0850182612ecf565b50505050565b6000612f658383612ede565b60c08301905092915050565b6000602082019050919050565b6000612f8982612dfc565b612f938185612e07565b9350612f9e83612e18565b8060005b83811015612fcf578151612fb68882612f59565b9750612fc183612f71565b925050600181019050612fa2565b5085935050505092915050565b60006020820190508181036000830152612ff68184612f7e565b905092915050565b60006020828403121561301457613013612a9d565b5b600061302284828501612cea565b91505092915050565b600080fd5b600080fd5b7f4e487b7100000000000000000000000000000000000000000000000000000000600052604160045260246000fd5b61306d82612ba8565b810181811067ffffffffffffffff8211171561308c5761308b613035565b5b80604052505050565b600061309f612a93565b90506130ab8282613064565b919050565b600067ffffffffffffffff8211156130cb576130ca613035565b5b6130d482612ba8565b9050602081019050919050565b82818337600083830152505050565b60006131036130fe846130b0565b613095565b90508281526020810184848401111561311f5761311e613030565b5b61312a8482856130e1565b509392505050565b600082601f8301126131475761314661302b565b5b81356131578482602086016130f0565b91505092915050565b6003811061316d57600080fd5b50565b60008135905061317f81613160565b92915050565b6000806040838503121561319c5761319b612a9d565b5b600083013567ffffffffffffffff8111156131ba576131b9612aa2565b5b6131c685828601613132565b92505060206131d785828601613170565b9150509250929050565b6131ea81612e37565b82525050565b600060208201905061320560008301846131e1565b92915050565b60c0820160008201516132216000850182612e28565b5060208201516132346020850182612e49565b5060408201516132476040850182612e49565b50606082015161325a6060850182612e28565b50608082015161326d6080850182612e58565b5060a082015161328060a0850182612ecf565b50505050565b600060c08201905061329b600083018461320b565b92915050565b6132aa81612b2c565b81146132b557600080fd5b50565b6000813590506132c7816132a1565b92915050565b600080604083850312156132e4576132e3612a9d565b5b60006132f285828601612cea565b9250506020613303858286016132b8565b9150509250929050565b600067ffffffffffffffff82111561332857613327613035565b5b61333182612ba8565b9050602081019050919050565b600061335161334c8461330d565b613095565b90508281526020810184848401111561336d5761336c613030565b5b6133788482856130e1565b509392505050565b600082601f8301126133955761339461302b565b5b81356133a584826020860161333e565b91505092915050565b600080600080608085870312156133c8576133c7612a9d565b5b60006133d687828801612cea565b94505060206133e787828801612cea565b93505060406133f887828801612c35565b925050606085013567ffffffffffffffff81111561341957613418612aa2565b5b61342587828801613380565b91505092959194509250565b6000806040838503121561344857613447612a9d565b5b600061345685828601612cea565b925050602061346785828601612cea565b9150509250929050565b7f4e487b7100000000000000000000000000000000000000000000000000000000600052602260045260246000fd5b600060028204905060018216806134b857607f821691505b6020821081036134cb576134ca613471565b5b50919050565b60006060820190506134e66000830186612ca9565b6134f36020830185612d92565b6135006040830184612ca9565b949350505050565b7f4f6e6c79206f776e65722063616e20757064617465206d696e74696e6720707260008201527f6963650000000000000000000000000000000000000000000000000000000000602082015250565b6000613564602383612b6d565b915061356f82613508565b604082019050919050565b6000602082019050818103600083015261359381613557565b9050919050565b7f5072696365206d7573742062652067726561746572207468616e207a65726f00600082015250565b60006135d0601f83612b6d565b91506135db8261359a565b602082019050919050565b600060208201905081810360008301526135ff816135c3565b9050919050565b7f53656e642074686520636f7272656374206c697374696e672070726963650000600082015250565b600061363c601e83612b6d565b915061364782613606565b602082019050919050565b6000602082019050818103600083015261366b8161362f565b9050919050565b7f596f75206d757374206f776e20746865204e465420746f206c69737420697400600082015250565b60006136a8601f83612b6d565b91506136b382613672565b602082019050919050565b600060208201905081810360008301526136d78161369b565b9050919050565b6136e781612ebd565b82525050565b600060a0820190506137026000830188612ca9565b61370f6020830187612ca9565b61371c6040830186612d92565b6137296060830185612b38565b61373660808301846136de565b9695505050505050565b7f4e487b7100000000000000000000000000000000000000000000000000000000600052601160045260246000fd5b600061377a82612c14565b91507fffffffffffffffffffffffffffffffffffffffffffffffffffffffffffffffff82036137ac576137ab613740565b5b600182019050919050565b7f4e487b7100000000000000000000000000000000000000000000000000000000600052603260045260246000fd5b7f4e6f7420656e6f7567682045544820746f206d696e7421000000000000000000600082015250565b600061381c601783612b6d565b9150613827826137e6565b602082019050919050565b6000602082019050818103600083015261384b8161380f565b9050919050565b7f4e4654206e6f74206c697374656420666f722073616c65000000000000000000600082015250565b6000613888601783612b6d565b915061389382613852565b602082019050919050565b600060208201905081810360008301526138b78161387b565b9050919050565b7f496e636f72726563742070726963652073656e74000000000000000000000000600082015250565b60006138f4601483612b6d565b91506138ff826138be565b602082019050919050565b60006020820190508181036000830152613923816138e7565b9050919050565b600081905092915050565b600061394082612b62565b61394a818561392a565b935061395a818560208601612b7e565b80840191505092915050565b60006139728285613935565b915061397e8284613935565b91508190509392505050565b60008190508160005260206000209050919050565b60006020601f8301049050919050565b600082821b905092915050565b6000600883026139ec7fffffffffffffffffffffffffffffffffffffffffffffffffffffffffffffffff826139af565b6139f686836139af565b95508019841693508086168417925050509392505050565b6000819050919050565b6000613a33613a2e613a2984612c14565b613a0e565b612c14565b9050919050565b6000819050919050565b613a4d83613a18565b613a61613a5982613a3a565b8484546139bc565b825550505050565b600090565b613a76613a69565b613a81818484613a44565b505050565b5b81811015613aa557613a9a600082613a6e565b600181019050613a87565b5050565b601f821115613aea57613abb8161398a565b613ac48461399f565b81016020851015613ad3578190505b613ae7613adf8561399f565b830182613a86565b50505b505050565b600082821c905092915050565b6000613b0d60001984600802613aef565b1980831691505092915050565b6000613b268383613afc565b9150826002028217905092915050565b613b3f82612b62565b67ffffffffffffffff811115613b5857613b57613035565b5b613b6282546134a0565b613b6d828285613aa9565b600060209050601f831160018114613ba05760008415613b8e578287015190505b613b988582613b1a565b865550613c00565b601f198416613bae8661398a565b60005b82811015613bd657848901518255600182019150602085019450602081019050613bb1565b86831015613bf35784890151613bef601f891682613afc565b8355505b6001600288020188555050505b505050505050565b600081519050919050565b600082825260208201905092915050565b6000613c2f82613c08565b613c398185613c13565b9350613c49818560208601612b7e565b613c5281612ba8565b840191505092915050565b6000608082019050613c726000830187612ca9565b613c7f6020830186612ca9565b613c8c6040830185612d92565b8181036060830152613c9e8184613c24565b905095945050505050565b600081519050613cb881612ad3565b92915050565b600060208284031215613cd457613cd3612a9d565b5b6000613ce284828501613ca9565b91505092915050565b6000604082019050613d006000830185612ca9565b613d0d6020830184612d92565b9392505050565b7f4e487b7100000000000000000000000000000000000000000000000000000000600052601260045260246000fdfea264697066735822122007d1970339bf762f6fdcb8ecc678fba0caf396ffb8f609715390145823bb1f6164736f6c634300081c0033",
  "linkReferences": {},
  "deployedLinkReferences": {}
}